{
  "contractName": "CollectExibits",
  "abi": [
    {
      "constant": true,
      "inputs": [
        {
          "name": "",
          "type": "address"
        }
      ],
      "name": "roles",
      "outputs": [
        {
          "name": "",
          "type": "string"
        }
      ],
      "payable": false,
      "stateMutability": "view",
      "type": "function"
    },
    {
      "inputs": [],
      "payable": false,
      "stateMutability": "nonpayable",
      "type": "constructor"
    },
    {
      "constant": false,
      "inputs": [
        {
          "name": "name",
          "type": "string"
        },
        {
          "name": "exibitType",
          "type": "string"
        },
        {
          "name": "locationName",
          "type": "string"
        }
      ],
      "name": "addNewExibit",
      "outputs": [
        {
          "name": "",
          "type": "bool"
        }
      ],
      "payable": false,
      "stateMutability": "nonpayable",
      "type": "function"
    }
  ],
  "bytecode": "0x608060405234801561001057600080fd5b506100737314723a09acff6d2a60dcdf7aa4aff308fddc160c6040805190810160405280600881526020017f72656365697665720000000000000000000000000000000000000000000000008152506100da640100000000026401000000009004565b6100d573ca35b7d915458ef540ade6068dfe2f44e8fa733c6040805190810160405280600681526020017f73656e64657200000000000000000000000000000000000000000000000000008152506100da640100000000026401000000009004565b6101d6565b806000808473ffffffffffffffffffffffffffffffffffffffff1673ffffffffffffffffffffffffffffffffffffffff168152602001908152602001600020908051906020019061012c929190610131565b505050565b828054600181600116156101000203166002900490600052602060002090601f016020900481019282601f1061017257805160ff19168380011785556101a0565b828001600101855582156101a0579182015b8281111561019f578251825591602001919060010190610184565b5b5090506101ad91906101b1565b5090565b6101d391905b808211156101cf5760008160009055506001016101b7565b5090565b90565b610458806101e56000396000f30060806040526004361061004c576000357c0100000000000000000000000000000000000000000000000000000000900463ffffffff1680639937464214610051578063e36f98c31461010d575b600080fd5b34801561005d57600080fd5b50610092600480360381019080803573ffffffffffffffffffffffffffffffffffffffff16906020019092919050505061021a565b6040518080602001828103825283818151815260200191508051906020019080838360005b838110156100d25780820151818401526020810190506100b7565b50505050905090810190601f1680156100ff5780820380516001836020036101000a031916815260200191505b509250505060405180910390f35b34801561011957600080fd5b50610200600480360381019080803590602001908201803590602001908080601f0160208091040260200160405190810160405280939291908181526020018383808284378201915050505050509192919290803590602001908201803590602001908080601f0160208091040260200160405190810160405280939291908181526020018383808284378201915050505050509192919290803590602001908201803590602001908080601f01602080910402602001604051908101604052809392919081815260200183838082843782019150505050505091929192905050506102ca565b604051808215151515815260200191505060405180910390f35b60006020528060005260406000206000915090508054600181600116156101000203166002900480601f0160208091040260200160405190810160405280929190818152602001828054600181600116156101000203166002900480156102c25780601f10610297576101008083540402835291602001916102c2565b820191906000526020600020905b8154815290600101906020018083116102a557829003601f168201915b505050505081565b600080600080600092506040805190810160405280600581526020017f6473667364000000000000000000000000000000000000000000000000000000815250826001019080519060200190610321929190610387565b506040805190810160405280600681526020017f4c6f6e646f6e000000000000000000000000000000000000000000000000000081525082600201908051906020019061036f929190610387565b50607b81600001819055508293505050509392505050565b828054600181600116156101000203166002900490600052602060002090601f016020900481019282601f106103c857805160ff19168380011785556103f6565b828001600101855582156103f6579182015b828111156103f55782518255916020019190600101906103da565b5b5090506104039190610407565b5090565b61042991905b8082111561042557600081600090555060010161040d565b5090565b905600a165627a7a72305820e20473f833d1b9235527d1f3a62ac034013508266cec72fcdd6e7e24c2e6d7960029",
  "source": "pragma solidity ^0.4.7;\n\n\ncontract CollectExibits{\n    \n //mapping of sender and receiver\nmapping(address => string) public roles;\n\n\n//Constructor to initialize few users at first boot \nfunction CollectExibits()  public {\n    \n //roles[123].push(\"asd\");// = roles(\"sender\");\n addDefaultRoles(0x14723a09acff6d2a60dcdf7aa4aff308fddc160c,\"receiver\");\n addDefaultRoles(0xca35b7d915458ef540ade6068dfe2f44e8fa733c,\"sender\");\n}\n\nfunction addDefaultRoles(address userAddress, string userRole ) private{\n    \n    roles[userAddress] = userRole ;\n    \n}\n\n//Check if the user is correct sender or receiver or not\naddress private sender ;\n//each exibit has some properties. feel free to add your own\nstruct exibitDetails {\n    \n    uint  id ;\n    string name;\n    string location;\n}\n\n//When you send/receive the exibits, they are not \n//sent as a single peice but as a consignment\nstruct consignmentDetails{\n    uint consignmentId;\n    exibitDetails[] listOfExibits;\n\n}\n\n//Add exibit details which we will send to forensic lab for fuether testing\nfunction addNewExibit  (string name, string exibitType, string locationName) public returns(bool){\n       \n//      require(roles[msg.sender] == \"sender\");\n         bool hasExibitAdded = false;\n        //Add consignment and  exibit details\n        //CollectExibits.exibitDetails.id = 123;\n        exibitDetails a ;\n        a.name = \"dsfsd\";\n    //  exibitDetails.name  \"bullet\";\n    a.location = \"London\";\n//      consignmentDetails.listOfExibits.Add(exibitDetails);\n        consignmentDetails c;\n        c.consignmentId = 123;\n        \n        return hasExibitAdded;\n        \n    \n}\n\n}",
  "sourcePath": "/home/rave/GithubDemoProject/EtheriumDemoproject/contracts/CollectExibits.sol",
  "compiler": {
    "name": "solc",
    "version": "0.4.24+commit.e67f0147.Emscripten.clang"
  },
  "schemaVersion": "2.0.1",
  "updatedAt": "2018-09-12T20:03:24.787Z"
}